{
  "_format": "hh-sol-artifact-1",
  "contractName": "SupplyChain",
  "sourceName": "contracts/SupplyChain.sol",
  "abi": [
    {
      "inputs": [],
      "stateMutability": "nonpayable",
      "type": "constructor"
    },
    {
      "anonymous": false,
      "inputs": [
        {
          "indexed": false,
          "internalType": "uint256",
          "name": "id",
          "type": "uint256"
        },
        {
          "indexed": false,
          "internalType": "string",
          "name": "name",
          "type": "string"
        }
      ],
      "name": "MedicineAdded",
      "type": "event"
    },
    {
      "anonymous": false,
      "inputs": [
        {
          "indexed": false,
          "internalType": "uint256",
          "name": "id",
          "type": "uint256"
        },
        {
          "indexed": false,
          "internalType": "enum SupplyChain.STAGE",
          "name": "stage",
          "type": "uint8"
        },
        {
          "indexed": false,
          "internalType": "uint256",
          "name": "timestamp",
          "type": "uint256"
        }
      ],
      "name": "StageUpdated",
      "type": "event"
    },
    {
      "inputs": [
        {
          "internalType": "uint256",
          "name": "",
          "type": "uint256"
        }
      ],
      "name": "DIS",
      "outputs": [
        {
          "internalType": "address",
          "name": "addr",
          "type": "address"
        },
        {
          "internalType": "uint256",
          "name": "id",
          "type": "uint256"
        },
        {
          "internalType": "string",
          "name": "name",
          "type": "string"
        },
        {
          "internalType": "string",
          "name": "place",
          "type": "string"
        }
      ],
      "stateMutability": "view",
      "type": "function"
    },
    {
      "inputs": [
        {
          "internalType": "uint256",
          "name": "_medicineID",
          "type": "uint256"
        },
        {
          "internalType": "string",
          "name": "_gps",
          "type": "string"
        }
      ],
      "name": "Distribute",
      "outputs": [],
      "stateMutability": "nonpayable",
      "type": "function"
    },
    {
      "inputs": [
        {
          "internalType": "uint256",
          "name": "",
          "type": "uint256"
        }
      ],
      "name": "MAN",
      "outputs": [
        {
          "internalType": "address",
          "name": "addr",
          "type": "address"
        },
        {
          "internalType": "uint256",
          "name": "id",
          "type": "uint256"
        },
        {
          "internalType": "string",
          "name": "name",
          "type": "string"
        },
        {
          "internalType": "string",
          "name": "place",
          "type": "string"
        }
      ],
      "stateMutability": "view",
      "type": "function"
    },
    {
      "inputs": [
        {
          "internalType": "uint256",
          "name": "_medicineID",
          "type": "uint256"
        },
        {
          "internalType": "string",
          "name": "_gps",
          "type": "string"
        }
      ],
      "name": "Manufacturing",
      "outputs": [],
      "stateMutability": "nonpayable",
      "type": "function"
    },
    {
      "inputs": [
        {
          "internalType": "uint256",
          "name": "",
          "type": "uint256"
        }
      ],
      "name": "MedicineStock",
      "outputs": [
        {
          "internalType": "uint256",
          "name": "id",
          "type": "uint256"
        },
        {
          "internalType": "string",
          "name": "name",
          "type": "string"
        },
        {
          "internalType": "string",
          "name": "description",
          "type": "string"
        },
        {
          "internalType": "uint256",
          "name": "RMSid",
          "type": "uint256"
        },
        {
          "internalType": "uint256",
          "name": "MANid",
          "type": "uint256"
        },
        {
          "internalType": "uint256",
          "name": "DISid",
          "type": "uint256"
        },
        {
          "internalType": "uint256",
          "name": "RETid",
          "type": "uint256"
        },
        {
          "internalType": "enum SupplyChain.STAGE",
          "name": "stage",
          "type": "uint8"
        },
        {
          "internalType": "uint256",
          "name": "timestamp",
          "type": "uint256"
        },
        {
          "internalType": "string",
          "name": "gpsCoordinates",
          "type": "string"
        }
      ],
      "stateMutability": "view",
      "type": "function"
    },
    {
      "inputs": [],
      "name": "Owner",
      "outputs": [
        {
          "internalType": "address",
          "name": "",
          "type": "address"
        }
      ],
      "stateMutability": "view",
      "type": "function"
    },
    {
      "inputs": [
        {
          "internalType": "uint256",
          "name": "",
          "type": "uint256"
        }
      ],
      "name": "RET",
      "outputs": [
        {
          "internalType": "address",
          "name": "addr",
          "type": "address"
        },
        {
          "internalType": "uint256",
          "name": "id",
          "type": "uint256"
        },
        {
          "internalType": "string",
          "name": "name",
          "type": "string"
        },
        {
          "internalType": "string",
          "name": "place",
          "type": "string"
        }
      ],
      "stateMutability": "view",
      "type": "function"
    },
    {
      "inputs": [
        {
          "internalType": "uint256",
          "name": "",
          "type": "uint256"
        }
      ],
      "name": "RMS",
      "outputs": [
        {
          "internalType": "address",
          "name": "addr",
          "type": "address"
        },
        {
          "internalType": "uint256",
          "name": "id",
          "type": "uint256"
        },
        {
          "internalType": "string",
          "name": "name",
          "type": "string"
        },
        {
          "internalType": "string",
          "name": "place",
          "type": "string"
        }
      ],
      "stateMutability": "view",
      "type": "function"
    },
    {
      "inputs": [
        {
          "internalType": "uint256",
          "name": "_medicineID",
          "type": "uint256"
        },
        {
          "internalType": "string",
          "name": "_gps",
          "type": "string"
        }
      ],
      "name": "RMSsupply",
      "outputs": [],
      "stateMutability": "nonpayable",
      "type": "function"
    },
    {
      "inputs": [
        {
          "internalType": "uint256",
          "name": "_medicineID",
          "type": "uint256"
        },
        {
          "internalType": "string",
          "name": "_gps",
          "type": "string"
        }
      ],
      "name": "Retail",
      "outputs": [],
      "stateMutability": "nonpayable",
      "type": "function"
    },
    {
      "inputs": [
        {
          "internalType": "address",
          "name": "_address",
          "type": "address"
        },
        {
          "internalType": "string",
          "name": "_name",
          "type": "string"
        },
        {
          "internalType": "string",
          "name": "_place",
          "type": "string"
        }
      ],
      "name": "addDistributor",
      "outputs": [],
      "stateMutability": "nonpayable",
      "type": "function"
    },
    {
      "inputs": [
        {
          "internalType": "address",
          "name": "_address",
          "type": "address"
        },
        {
          "internalType": "string",
          "name": "_name",
          "type": "string"
        },
        {
          "internalType": "string",
          "name": "_place",
          "type": "string"
        }
      ],
      "name": "addManufacturer",
      "outputs": [],
      "stateMutability": "nonpayable",
      "type": "function"
    },
    {
      "inputs": [
        {
          "internalType": "string",
          "name": "_name",
          "type": "string"
        },
        {
          "internalType": "string",
          "name": "_description",
          "type": "string"
        }
      ],
      "name": "addMedicine",
      "outputs": [],
      "stateMutability": "nonpayable",
      "type": "function"
    },
    {
      "inputs": [
        {
          "internalType": "address",
          "name": "_address",
          "type": "address"
        },
        {
          "internalType": "string",
          "name": "_name",
          "type": "string"
        },
        {
          "internalType": "string",
          "name": "_place",
          "type": "string"
        }
      ],
      "name": "addRMS",
      "outputs": [],
      "stateMutability": "nonpayable",
      "type": "function"
    },
    {
      "inputs": [
        {
          "internalType": "address",
          "name": "_address",
          "type": "address"
        },
        {
          "internalType": "string",
          "name": "_name",
          "type": "string"
        },
        {
          "internalType": "string",
          "name": "_place",
          "type": "string"
        }
      ],
      "name": "addRetailer",
      "outputs": [],
      "stateMutability": "nonpayable",
      "type": "function"
    },
    {
      "inputs": [],
      "name": "disCtr",
      "outputs": [
        {
          "internalType": "uint256",
          "name": "",
          "type": "uint256"
        }
      ],
      "stateMutability": "view",
      "type": "function"
    },
    {
      "inputs": [],
      "name": "manCtr",
      "outputs": [
        {
          "internalType": "uint256",
          "name": "",
          "type": "uint256"
        }
      ],
      "stateMutability": "view",
      "type": "function"
    },
    {
      "inputs": [],
      "name": "medicineCtr",
      "outputs": [
        {
          "internalType": "uint256",
          "name": "",
          "type": "uint256"
        }
      ],
      "stateMutability": "view",
      "type": "function"
    },
    {
      "inputs": [],
      "name": "retCtr",
      "outputs": [
        {
          "internalType": "uint256",
          "name": "",
          "type": "uint256"
        }
      ],
      "stateMutability": "view",
      "type": "function"
    },
    {
      "inputs": [],
      "name": "rmsCtr",
      "outputs": [
        {
          "internalType": "uint256",
          "name": "",
          "type": "uint256"
        }
      ],
      "stateMutability": "view",
      "type": "function"
    },
    {
      "inputs": [
        {
          "internalType": "uint256",
          "name": "_medicineID",
          "type": "uint256"
        },
        {
          "internalType": "string",
          "name": "_gps",
          "type": "string"
        }
      ],
      "name": "sold",
      "outputs": [],
      "stateMutability": "nonpayable",
      "type": "function"
    }
  ],
  "bytecode": "0x60806040526000600155600060025560006003556000600455600060055534801561002957600080fd5b50600080546001600160a01b031916331790556117148061004b6000396000f3fe608060405234801561001057600080fd5b50600436106101375760003560e01c80636ec18782116100b8578063b4a99a4e1161007c578063b4a99a4e1461025a578063bf63f6bd14610285578063cc40306914610298578063dd286398146102ab578063eb1a06b5146102b4578063eef5cb40146102dd57600080fd5b80636ec187821461020f5780637e43d94d14610222578063857ddb041461022b5780638f4183cc1461023e578063a95f29d91461025157600080fd5b80632bdb2e6b116100ff5780632bdb2e6b146101b657806338acd64d146101cd578063438e9c4d146101e057806359bf286f146101e95780636a992c9f146101fc57600080fd5b806303e460901461013c5780631c9c74c4146101515780632a4af440146101645780632b0187ac146101775780632b70b08d146101a3575b600080fd5b61014f61014a36600461128a565b6102f0565b005b61014f61015f36600461128a565b6103b1565b61014f6101723660046112d1565b610473565b61018a610185366004611353565b61053d565b60405161019a94939291906113b2565b60405180910390f35b61014f6101b13660046112d1565b610680565b6101bf60045481565b60405190815260200161019a565b61014f6101db36600461128a565b61072e565b6101bf60035481565b61018a6101f7366004611353565b610808565b61014f61020a3660046112d1565b61083a565b61014f61021d36600461128a565b6108e7565b6101bf60055481565b61014f6102393660046112d1565b6109a8565b61014f61024c3660046113f6565b610a55565b6101bf60015481565b60005461026d906001600160a01b031681565b6040516001600160a01b03909116815260200161019a565b61014f61029336600461128a565b610c93565b61018a6102a6366004611353565b610d53565b6101bf60025481565b6102c76102c2366004611353565b610d85565b60405161019a9a99989796959493929190611488565b61018a6102eb366004611353565b610f77565b6102f982610fa9565b61030257600080fd5b600061030d33610ffd565b90506000811161034e5760405162461bcd60e51b81526020600482015260076024820152664e6f7420524d5360c81b60448201526064015b60405180910390fd5b60008381526006602052604081206007015460ff16600581111561037457610374611450565b1461037e57600080fd5b6000838152600660205260409020600381018290556009016103a08382611588565b506103ac83600161105f565b505050565b6103ba82610fa9565b6103c357600080fd5b60006103ce336110dc565b9050600081116104135760405162461bcd60e51b815260206004820152601060248201526f2737ba1026b0b73ab330b1ba3ab932b960811b6044820152606401610345565b600160008481526006602052604090206007015460ff16600581111561043b5761043b611450565b1461044557600080fd5b6000838152600660205260409020600481018290556009016104678382611588565b506103ac83600261105f565b6000546001600160a01b0316331461049d5760405162461bcd60e51b815260040161034590611648565b600480549060006104ad83611674565b9091555050604080516080810182526001600160a01b0385811682526004546020808401828152848601888152606086018890526000938452600990925294909120835181546001600160a01b031916931692909217825592516001820155915190919060028201906105209082611588565b50606082015160038201906105359082611588565b505050505050565b6009602052600090815260409020805460018201546002830180546001600160a01b0390931693919261056f90611508565b80601f016020809104026020016040519081016040528092919081815260200182805461059b90611508565b80156105e85780601f106105bd576101008083540402835291602001916105e8565b820191906000526020600020905b8154815290600101906020018083116105cb57829003601f168201915b5050505050908060030180546105fd90611508565b80601f016020809104026020016040519081016040528092919081815260200182805461062990611508565b80156106765780601f1061064b57610100808354040283529160200191610676565b820191906000526020600020905b81548152906001019060200180831161065957829003601f168201915b5050505050905084565b6000546001600160a01b031633146106aa5760405162461bcd60e51b815260040161034590611648565b600280549060006106ba83611674565b9091555050604080516080810182526001600160a01b038581168252600280546020808501828152858701898152606087018990526000938452600790925295909120845181546001600160a01b031916941693909317835593516001830155925191929091908201906105209082611588565b61073782610fa9565b61074057600080fd5b600061074b33611135565b6000848152600660208190526040909120015490915081146107af5760405162461bcd60e51b815260206004820152601f60248201527f4f6e6c792061737369676e65642072657461696c65722063616e2073656c6c006044820152606401610345565b600460008481526006602052604090206007015460ff1660058111156107d7576107d7611450565b146107e157600080fd5b60008381526006602052604090206009016107fc8382611588565b506103ac83600561105f565b600a602052600090815260409020805460018201546002830180546001600160a01b0390931693919261056f90611508565b6000546001600160a01b031633146108645760405162461bcd60e51b815260040161034590611648565b6003805490600061087483611674565b9091555050604080516080810182526001600160a01b0385811682526003546020808401828152848601888152606086018890526000938452600890925294909120835181546001600160a01b031916931692909217825592516001820155915190919060028201906105209082611588565b6108f082610fa9565b6108f957600080fd5b60006109043361118e565b9050600081116109485760405162461bcd60e51b815260206004820152600f60248201526e2737ba102234b9ba3934b13aba37b960891b6044820152606401610345565b600260008481526006602052604090206007015460ff16600581111561097057610970611450565b1461097a57600080fd5b60008381526006602052604090206005810182905560090161099c8382611588565b506103ac83600361105f565b6000546001600160a01b031633146109d25760405162461bcd60e51b815260040161034590611648565b600580549060006109e283611674565b9091555050604080516080810182526001600160a01b0385811682526005546020808401828152848601888152606086018890526000938452600a90925294909120835181546001600160a01b031916931692909217825592516001820155915190919060028201906105209082611588565b6000546001600160a01b03163314610a7f5760405162461bcd60e51b815260040161034590611648565b6000600254118015610a9357506000600354115b8015610aa157506000600454115b8015610aaf57506000600554115b610af25760405162461bcd60e51b8152602060048201526014602482015273105b1b081c9bdb195cc81b5d5cdd08195e1a5cdd60621b6044820152606401610345565b60018054906000610b0283611674565b919050555060405180610140016040528060015481526020018381526020018281526020016000815260200160008152602001600081526020016000815260200160006005811115610b5657610b56611450565b8152602001428152602001604051806040016040528060128152602001714f726967696e3a20466163746f727920485160701b815250815250600660006001548152602001908152602001600020600082015181600001556020820151816001019081610bc39190611588565b5060408201516002820190610bd89082611588565b50606082015181600301556080820151816004015560a0820151816005015560c0820151816006015560e08201518160070160006101000a81548160ff02191690836005811115610c2b57610c2b611450565b021790555061010082015160088201556101208201516009820190610c509082611588565b509050507f391a5327e58df0236e727eae6e91d54d5aae7a950c4e6616893611e349f6c64e60015483604051610c8792919061169b565b60405180910390a15050565b610c9c82610fa9565b610ca557600080fd5b6000610cb033611135565b905060008111610cf15760405162461bcd60e51b815260206004820152600c60248201526b2737ba102932ba30b4b632b960a11b6044820152606401610345565b600360008481526006602052604090206007015460ff166005811115610d1957610d19611450565b14610d2357600080fd5b6000838152600660208190526040909120908101829055600901610d478382611588565b506103ac83600461105f565b6008602052600090815260409020805460018201546002830180546001600160a01b0390931693919261056f90611508565b60066020526000908152604090208054600182018054919291610da790611508565b80601f0160208091040260200160405190810160405280929190818152602001828054610dd390611508565b8015610e205780601f10610df557610100808354040283529160200191610e20565b820191906000526020600020905b815481529060010190602001808311610e0357829003601f168201915b505050505090806002018054610e3590611508565b80601f0160208091040260200160405190810160405280929190818152602001828054610e6190611508565b8015610eae5780601f10610e8357610100808354040283529160200191610eae565b820191906000526020600020905b815481529060010190602001808311610e9157829003601f168201915b5050505050908060030154908060040154908060050154908060060154908060070160009054906101000a900460ff1690806008015490806009018054610ef490611508565b80601f0160208091040260200160405190810160405280929190818152602001828054610f2090611508565b8015610f6d5780601f10610f4257610100808354040283529160200191610f6d565b820191906000526020600020905b815481529060010190602001808311610f5057829003601f168201915b505050505090508a565b6007602052600090815260409020805460018201546002830180546001600160a01b0390931693919261056f90611508565b60008082118015610fbc57506001548211155b610ff55760405162461bcd60e51b815260206004820152600a602482015269125b9d985b1a5908125160b21b6044820152606401610345565b506001919050565b600060015b6002548111611056576000818152600760205260409020546001600160a01b038085169116036110445760009081526007602052604090206001015492915050565b8061104e81611674565b915050611002565b50600092915050565b6000828152600660205260409020600701805482919060ff1916600183600581111561108d5761108d611450565b02179055506000828152600660205260409081902042600890910181905590517f1c9f99abdc4ff0dc1efc16917683317ce1f3ae802fd4c0a9f03c475b778e389091610c8791859185916116bc565b600060015b6003548111611056576000818152600860205260409020546001600160a01b038085169116036111235760009081526008602052604090206001015492915050565b8061112d81611674565b9150506110e1565b600060015b6005548111611056576000818152600a60205260409020546001600160a01b0380851691160361117c576000908152600a602052604090206001015492915050565b8061118681611674565b91505061113a565b600060015b6004548111611056576000818152600960205260409020546001600160a01b038085169116036111d55760009081526009602052604090206001015492915050565b806111df81611674565b915050611193565b634e487b7160e01b600052604160045260246000fd5b600082601f83011261120e57600080fd5b813567ffffffffffffffff80821115611229576112296111e7565b604051601f8301601f19908116603f01168101908282118183101715611251576112516111e7565b8160405283815286602085880101111561126a57600080fd5b836020870160208301376000602085830101528094505050505092915050565b6000806040838503121561129d57600080fd5b82359150602083013567ffffffffffffffff8111156112bb57600080fd5b6112c7858286016111fd565b9150509250929050565b6000806000606084860312156112e657600080fd5b83356001600160a01b03811681146112fd57600080fd5b9250602084013567ffffffffffffffff8082111561131a57600080fd5b611326878388016111fd565b9350604086013591508082111561133c57600080fd5b50611349868287016111fd565b9150509250925092565b60006020828403121561136557600080fd5b5035919050565b6000815180845260005b8181101561139257602081850181015186830182015201611376565b506000602082860101526020601f19601f83011685010191505092915050565b60018060a01b03851681528360208201526080604082015260006113d9608083018561136c565b82810360608401526113eb818561136c565b979650505050505050565b6000806040838503121561140957600080fd5b823567ffffffffffffffff8082111561142157600080fd5b61142d868387016111fd565b9350602085013591508082111561144357600080fd5b506112c7858286016111fd565b634e487b7160e01b600052602160045260246000fd5b6006811061148457634e487b7160e01b600052602160045260246000fd5b9052565b60006101408c83528060208401526114a28184018d61136c565b905082810360408401526114b6818c61136c565b90508960608401528860808401528760a08401528660c08401526114dd60e0840187611466565b846101008401528281036101208401526114f7818561136c565b9d9c50505050505050505050505050565b600181811c9082168061151c57607f821691505b60208210810361153c57634e487b7160e01b600052602260045260246000fd5b50919050565b601f8211156103ac57600081815260208120601f850160051c810160208610156115695750805b601f850160051c820191505b8181101561053557828155600101611575565b815167ffffffffffffffff8111156115a2576115a26111e7565b6115b6816115b08454611508565b84611542565b602080601f8311600181146115eb57600084156115d35750858301515b600019600386901b1c1916600185901b178555610535565b600085815260208120601f198616915b8281101561161a578886015182559484019460019091019084016115fb565b50858210156116385787850151600019600388901b60f8161c191681555b5050505050600190811b01905550565b60208082526012908201527113db9b1e481bdddb995c88185b1b1bddd95960721b604082015260600190565b60006001820161169457634e487b7160e01b600052601160045260246000fd5b5060010190565b8281526040602082015260006116b4604083018461136c565b949350505050565b838152606081016116d06020830185611466565b82604083015294935050505056fea26469706673582212207f943edbcf188e5f0292a63f08ac024e6cabd47a5f6cedece9b5d8a87302d33564736f6c63430008130033",
  "linkReferences": {},
  "deployedLinkReferences": {}
}